{
  "_format": "hh-sol-artifact-1",
  "contractName": "OrderBookDex",
  "sourceName": "contracts/OrderBookDex.sol",
  "abi": [
    {
      "inputs": [
        {
          "internalType": "address",
          "name": "sender",
          "type": "address"
        }
      ],
      "name": "OrderBookDEX__AddressZeroNotAllowed",
      "type": "error"
    },
    {
      "inputs": [],
      "name": "OrderBookDEX__AmountMustBeGreaterThanZero",
      "type": "error"
    },
    {
      "inputs": [],
      "name": "OrderBookDEX__CannotBeSameToken",
      "type": "error"
    },
    {
      "inputs": [
        {
          "internalType": "address",
          "name": "creator",
          "type": "address"
        }
      ],
      "name": "OrderBookDEX__OnlyCreatorAllowed",
      "type": "error"
    },
    {
      "inputs": [],
      "name": "OrderBookDEX__OrderFilled",
      "type": "error"
    },
    {
      "inputs": [],
      "name": "OrderBookDEX__OrderNotActive",
      "type": "error"
    },
    {
      "anonymous": false,
      "inputs": [
        {
          "indexed": true,
          "internalType": "uint256",
          "name": "orderId",
          "type": "uint256"
        },
        {
          "indexed": true,
          "internalType": "address",
          "name": "tokenOffered",
          "type": "address"
        },
        {
          "indexed": true,
          "internalType": "address",
          "name": "tokenRequested",
          "type": "address"
        },
        {
          "indexed": false,
          "internalType": "uint256",
          "name": "amountOffered",
          "type": "uint256"
        },
        {
          "indexed": false,
          "internalType": "uint256",
          "name": "amountRequested",
          "type": "uint256"
        },
        {
          "indexed": false,
          "internalType": "address",
          "name": "recipient",
          "type": "address"
        }
      ],
      "name": "OrderCreated",
      "type": "event"
    },
    {
      "anonymous": false,
      "inputs": [
        {
          "indexed": true,
          "internalType": "uint256",
          "name": "orderId",
          "type": "uint256"
        },
        {
          "indexed": true,
          "internalType": "address",
          "name": "buyer",
          "type": "address"
        }
      ],
      "name": "OrderFulfilled",
      "type": "event"
    },
    {
      "inputs": [
        {
          "internalType": "uint256",
          "name": "_orderId",
          "type": "uint256"
        },
        {
          "internalType": "address",
          "name": "_offeredToken",
          "type": "address"
        }
      ],
      "name": "cancelOrder",
      "outputs": [],
      "stateMutability": "nonpayable",
      "type": "function"
    },
    {
      "inputs": [
        {
          "internalType": "address",
          "name": "_to",
          "type": "address"
        },
        {
          "internalType": "address",
          "name": "_tokenOffered",
          "type": "address"
        },
        {
          "internalType": "address",
          "name": "_tokenRequested",
          "type": "address"
        },
        {
          "internalType": "uint256",
          "name": "_amountOffered",
          "type": "uint256"
        },
        {
          "internalType": "uint256",
          "name": "_amountRequested",
          "type": "uint256"
        }
      ],
      "name": "createOrder",
      "outputs": [
        {
          "internalType": "uint256",
          "name": "orderId",
          "type": "uint256"
        }
      ],
      "stateMutability": "nonpayable",
      "type": "function"
    },
    {
      "inputs": [
        {
          "internalType": "uint256",
          "name": "_orderId",
          "type": "uint256"
        },
        {
          "internalType": "address",
          "name": "_offeredToken",
          "type": "address"
        }
      ],
      "name": "fillOrder",
      "outputs": [],
      "stateMutability": "nonpayable",
      "type": "function"
    },
    {
      "inputs": [
        {
          "internalType": "uint256",
          "name": "_orderId",
          "type": "uint256"
        },
        {
          "internalType": "address",
          "name": "_offeredToken",
          "type": "address"
        }
      ],
      "name": "getOrder",
      "outputs": [
        {
          "components": [
            {
              "internalType": "uint256",
              "name": "orderId",
              "type": "uint256"
            },
            {
              "internalType": "uint256",
              "name": "amountOffered",
              "type": "uint256"
            },
            {
              "internalType": "uint256",
              "name": "amountRequested",
              "type": "uint256"
            },
            {
              "internalType": "address",
              "name": "recipeint",
              "type": "address"
            },
            {
              "internalType": "address",
              "name": "creator",
              "type": "address"
            },
            {
              "internalType": "address",
              "name": "tokenOffered",
              "type": "address"
            },
            {
              "internalType": "address",
              "name": "tokenRequested",
              "type": "address"
            },
            {
              "internalType": "bool",
              "name": "isFilled",
              "type": "bool"
            },
            {
              "internalType": "bool",
              "name": "isActive",
              "type": "bool"
            }
          ],
          "internalType": "struct OrderBookDex.Order",
          "name": "",
          "type": "tuple"
        }
      ],
      "stateMutability": "view",
      "type": "function"
    },
    {
      "inputs": [
        {
          "internalType": "address",
          "name": "_offeredToken",
          "type": "address"
        }
      ],
      "name": "getOrderCount",
      "outputs": [
        {
          "internalType": "uint256",
          "name": "",
          "type": "uint256"
        }
      ],
      "stateMutability": "view",
      "type": "function"
    },
    {
      "inputs": [
        {
          "internalType": "address",
          "name": "",
          "type": "address"
        }
      ],
      "name": "orderCount",
      "outputs": [
        {
          "internalType": "uint256",
          "name": "",
          "type": "uint256"
        }
      ],
      "stateMutability": "view",
      "type": "function"
    }
  ],
  "bytecode": "0x608060405234801561001057600080fd5b5061139b806100206000396000f3fe608060405234801561001057600080fd5b50600436106100625760003560e01c80631a8596d5146100675780634aaecf5414610097578063713d856b146100b35780637323a7d3146100e3578063cbbfe168146100ff578063d8b867531461012f575b600080fd5b610081600480360381019061007c9190610fca565b61015f565b60405161008e9190611054565b60405180910390f35b6100b160048036038101906100ac919061106f565b610639565b005b6100cd60048036038101906100c891906110af565b610914565b6040516100da9190611054565b60405180910390f35b6100fd60048036038101906100f8919061106f565b61092c565b005b6101196004803603810190610114919061106f565b610bb5565b60405161012691906111cc565b60405180910390f35b610149600480360381019061014491906110af565b610dcc565b6040516101569190611054565b60405180910390f35b600061016a86610e15565b600083036101a4576040517f87e7cf3e00000000000000000000000000000000000000000000000000000000815260040160405180910390fd5b600082036101de576040517f87e7cf3e00000000000000000000000000000000000000000000000000000000815260040160405180910390fd5b8373ffffffffffffffffffffffffffffffffffffffff168573ffffffffffffffffffffffffffffffffffffffff1603610243576040517f44cc8be000000000000000000000000000000000000000000000000000000000815260040160405180910390fd5b8473ffffffffffffffffffffffffffffffffffffffff166323b872dd3330866040518463ffffffff1660e01b8152600401610280939291906111f7565b6020604051808303816000875af115801561029f573d6000803e3d6000fd5b505050506040513d601f19601f820116820180604052508101906102c3919061125a565b5060018060008773ffffffffffffffffffffffffffffffffffffffff1673ffffffffffffffffffffffffffffffffffffffff1681526020019081526020016000205461030f91906112b6565b905060006040518061012001604052808381526020018581526020018481526020018873ffffffffffffffffffffffffffffffffffffffff1681526020013373ffffffffffffffffffffffffffffffffffffffff1681526020018773ffffffffffffffffffffffffffffffffffffffff1681526020018673ffffffffffffffffffffffffffffffffffffffff16815260200160001515815260200160011515815250905081600160008873ffffffffffffffffffffffffffffffffffffffff1673ffffffffffffffffffffffffffffffffffffffff16815260200190815260200160002081905550806000808873ffffffffffffffffffffffffffffffffffffffff1673ffffffffffffffffffffffffffffffffffffffff168152602001908152602001600020600084815260200190815260200160002060008201518160000155602082015181600101556040820151816002015560608201518160030160006101000a81548173ffffffffffffffffffffffffffffffffffffffff021916908373ffffffffffffffffffffffffffffffffffffffff16021790555060808201518160040160006101000a81548173ffffffffffffffffffffffffffffffffffffffff021916908373ffffffffffffffffffffffffffffffffffffffff16021790555060a08201518160050160006101000a81548173ffffffffffffffffffffffffffffffffffffffff021916908373ffffffffffffffffffffffffffffffffffffffff16021790555060c08201518160060160006101000a81548173ffffffffffffffffffffffffffffffffffffffff021916908373ffffffffffffffffffffffffffffffffffffffff16021790555060e08201518160060160146101000a81548160ff0219169083151502179055506101008201518160060160156101000a81548160ff0219169083151502179055509050508473ffffffffffffffffffffffffffffffffffffffff168673ffffffffffffffffffffffffffffffffffffffff16837f4fd83abc913625f5fe88f2c9ca72d0044424518ee9dceeb0c9ad9b2afd0409b487878c604051610627939291906112ea565b60405180910390a45095945050505050565b60008060008373ffffffffffffffffffffffffffffffffffffffff1673ffffffffffffffffffffffffffffffffffffffff168152602001908152602001600020600084815260200190815260200160002090508060060160149054906101000a900460ff16156106d5576040517fc915eb9e00000000000000000000000000000000000000000000000000000000815260040160405180910390fd5b8060060160159054906101000a900460ff1661071d576040517fc26a494d00000000000000000000000000000000000000000000000000000000815260040160405180910390fd5b8060060160009054906101000a900473ffffffffffffffffffffffffffffffffffffffff1673ffffffffffffffffffffffffffffffffffffffff166323b872dd338360030160009054906101000a900473ffffffffffffffffffffffffffffffffffffffff1684600201546040518463ffffffff1660e01b81526004016107a6939291906111f7565b6020604051808303816000875af11580156107c5573d6000803e3d6000fd5b505050506040513d601f19601f820116820180604052508101906107e9919061125a565b508060050160009054906101000a900473ffffffffffffffffffffffffffffffffffffffff1673ffffffffffffffffffffffffffffffffffffffff1663a9059cbb3383600101546040518363ffffffff1660e01b815260040161084d929190611321565b6020604051808303816000875af115801561086c573d6000803e3d6000fd5b505050506040513d601f19601f82011682018060405250810190610890919061125a565b5060008160060160156101000a81548160ff02191690831515021790555060018160060160146101000a81548160ff0219169083151502179055503373ffffffffffffffffffffffffffffffffffffffff16837fe5f48e2a4a303d196ad814389aa54cf34e7b1e404e740599d005907a2ca0cd6c60405160405180910390a3505050565b60016020528060005260406000206000915090505481565b60008060008373ffffffffffffffffffffffffffffffffffffffff1673ffffffffffffffffffffffffffffffffffffffff168152602001908152602001600020600084815260200190815260200160002090508060060160149054906101000a900460ff16156109c8576040517fc915eb9e00000000000000000000000000000000000000000000000000000000815260040160405180910390fd5b8060060160159054906101000a900460ff16610a10576040517fc26a494d00000000000000000000000000000000000000000000000000000000815260040160405180910390fd5b8060040160009054906101000a900473ffffffffffffffffffffffffffffffffffffffff1673ffffffffffffffffffffffffffffffffffffffff163373ffffffffffffffffffffffffffffffffffffffff1614610ac8578060040160009054906101000a900473ffffffffffffffffffffffffffffffffffffffff166040517fba46c2f6000000000000000000000000000000000000000000000000000000008152600401610abf919061134a565b60405180910390fd5b8060050160009054906101000a900473ffffffffffffffffffffffffffffffffffffffff1673ffffffffffffffffffffffffffffffffffffffff1663a9059cbb8260040160009054906101000a900473ffffffffffffffffffffffffffffffffffffffff1683600101546040518363ffffffff1660e01b8152600401610b4f929190611321565b6020604051808303816000875af1158015610b6e573d6000803e3d6000fd5b505050506040513d601f19601f82011682018060405250810190610b92919061125a565b5060008160060160156101000a81548160ff021916908315150217905550505050565b610bbd610e89565b6000808373ffffffffffffffffffffffffffffffffffffffff1673ffffffffffffffffffffffffffffffffffffffff1681526020019081526020016000206000848152602001908152602001600020604051806101200160405290816000820154815260200160018201548152602001600282015481526020016003820160009054906101000a900473ffffffffffffffffffffffffffffffffffffffff1673ffffffffffffffffffffffffffffffffffffffff1673ffffffffffffffffffffffffffffffffffffffff1681526020016004820160009054906101000a900473ffffffffffffffffffffffffffffffffffffffff1673ffffffffffffffffffffffffffffffffffffffff1673ffffffffffffffffffffffffffffffffffffffff1681526020016005820160009054906101000a900473ffffffffffffffffffffffffffffffffffffffff1673ffffffffffffffffffffffffffffffffffffffff1673ffffffffffffffffffffffffffffffffffffffff1681526020016006820160009054906101000a900473ffffffffffffffffffffffffffffffffffffffff1673ffffffffffffffffffffffffffffffffffffffff1673ffffffffffffffffffffffffffffffffffffffff1681526020016006820160149054906101000a900460ff161515151581526020016006820160159054906101000a900460ff161515151581525050905092915050565b6000600160008373ffffffffffffffffffffffffffffffffffffffff1673ffffffffffffffffffffffffffffffffffffffff168152602001908152602001600020549050919050565b600073ffffffffffffffffffffffffffffffffffffffff168173ffffffffffffffffffffffffffffffffffffffff1603610e8657806040517f1e174fcf000000000000000000000000000000000000000000000000000000008152600401610e7d919061134a565b60405180910390fd5b50565b604051806101200160405280600081526020016000815260200160008152602001600073ffffffffffffffffffffffffffffffffffffffff168152602001600073ffffffffffffffffffffffffffffffffffffffff168152602001600073ffffffffffffffffffffffffffffffffffffffff168152602001600073ffffffffffffffffffffffffffffffffffffffff1681526020016000151581526020016000151581525090565b600080fd5b600073ffffffffffffffffffffffffffffffffffffffff82169050919050565b6000610f6182610f36565b9050919050565b610f7181610f56565b8114610f7c57600080fd5b50565b600081359050610f8e81610f68565b92915050565b6000819050919050565b610fa781610f94565b8114610fb257600080fd5b50565b600081359050610fc481610f9e565b92915050565b600080600080600060a08688031215610fe657610fe5610f31565b5b6000610ff488828901610f7f565b955050602061100588828901610f7f565b945050604061101688828901610f7f565b935050606061102788828901610fb5565b925050608061103888828901610fb5565b9150509295509295909350565b61104e81610f94565b82525050565b60006020820190506110696000830184611045565b92915050565b6000806040838503121561108657611085610f31565b5b600061109485828601610fb5565b92505060206110a585828601610f7f565b9150509250929050565b6000602082840312156110c5576110c4610f31565b5b60006110d384828501610f7f565b91505092915050565b6110e581610f94565b82525050565b6110f481610f56565b82525050565b60008115159050919050565b61110f816110fa565b82525050565b6101208201600082015161112c60008501826110dc565b50602082015161113f60208501826110dc565b50604082015161115260408501826110dc565b50606082015161116560608501826110eb565b50608082015161117860808501826110eb565b5060a082015161118b60a08501826110eb565b5060c082015161119e60c08501826110eb565b5060e08201516111b160e0850182611106565b506101008201516111c6610100850182611106565b50505050565b6000610120820190506111e26000830184611115565b92915050565b6111f181610f56565b82525050565b600060608201905061120c60008301866111e8565b61121960208301856111e8565b6112266040830184611045565b949350505050565b611237816110fa565b811461124257600080fd5b50565b6000815190506112548161122e565b92915050565b6000602082840312156112705761126f610f31565b5b600061127e84828501611245565b91505092915050565b7f4e487b7100000000000000000000000000000000000000000000000000000000600052601160045260246000fd5b60006112c182610f94565b91506112cc83610f94565b92508282019050808211156112e4576112e3611287565b5b92915050565b60006060820190506112ff6000830186611045565b61130c6020830185611045565b61131960408301846111e8565b949350505050565b600060408201905061133660008301856111e8565b6113436020830184611045565b9392505050565b600060208201905061135f60008301846111e8565b9291505056fea26469706673582212204e2195c7c4457f723123d28b2117b98258208ba9624f2b7c0a2f31c1b7179d2364736f6c63430008180033",
  "linkReferences": {},
  "deployedLinkReferences": {}
}